{
  "contractName": "Hospital",
  "abi": [
    {
      "inputs": [],
      "payable": false,
      "stateMutability": "nonpayable",
      "type": "constructor"
    },
    {
      "anonymous": false,
      "inputs": [
        {
          "indexed": false,
          "internalType": "uint256",
          "name": "appointmentId",
          "type": "uint256"
        },
        {
          "indexed": false,
          "internalType": "bool",
          "name": "isBooked",
          "type": "bool"
        },
        {
          "indexed": false,
          "internalType": "uint256",
          "name": "price",
          "type": "uint256"
        },
        {
          "indexed": false,
          "internalType": "string",
          "name": "patientName",
          "type": "string"
        },
        {
          "indexed": false,
          "internalType": "address payable",
          "name": "patient",
          "type": "address"
        }
      ],
      "name": "appointmentBooked",
      "type": "event"
    },
    {
      "anonymous": false,
      "inputs": [
        {
          "indexed": false,
          "internalType": "uint256",
          "name": "appointmentId",
          "type": "uint256"
        },
        {
          "indexed": false,
          "internalType": "bool",
          "name": "isBooked",
          "type": "bool"
        },
        {
          "indexed": false,
          "internalType": "uint256",
          "name": "price",
          "type": "uint256"
        },
        {
          "indexed": false,
          "internalType": "string",
          "name": "patientName",
          "type": "string"
        },
        {
          "indexed": false,
          "internalType": "address payable",
          "name": "patient",
          "type": "address"
        }
      ],
      "name": "appointmentCancel",
      "type": "event"
    },
    {
      "constant": true,
      "inputs": [
        {
          "internalType": "address",
          "name": "",
          "type": "address"
        }
      ],
      "name": "appointments",
      "outputs": [
        {
          "internalType": "uint256",
          "name": "appointmentId",
          "type": "uint256"
        },
        {
          "internalType": "bool",
          "name": "isBooked",
          "type": "bool"
        },
        {
          "internalType": "uint256",
          "name": "price",
          "type": "uint256"
        },
        {
          "internalType": "string",
          "name": "patientName",
          "type": "string"
        },
        {
          "internalType": "address payable",
          "name": "patient",
          "type": "address"
        }
      ],
      "payable": false,
      "stateMutability": "view",
      "type": "function"
    },
    {
      "constant": true,
      "inputs": [],
      "name": "hospitalName",
      "outputs": [
        {
          "internalType": "string",
          "name": "",
          "type": "string"
        }
      ],
      "payable": false,
      "stateMutability": "view",
      "type": "function"
    },
    {
      "constant": true,
      "inputs": [
        {
          "internalType": "address",
          "name": "",
          "type": "address"
        }
      ],
      "name": "isBooked",
      "outputs": [
        {
          "internalType": "bool",
          "name": "",
          "type": "bool"
        }
      ],
      "payable": false,
      "stateMutability": "view",
      "type": "function"
    },
    {
      "constant": true,
      "inputs": [],
      "name": "totalNumber",
      "outputs": [
        {
          "internalType": "uint256",
          "name": "",
          "type": "uint256"
        }
      ],
      "payable": false,
      "stateMutability": "view",
      "type": "function"
    },
    {
      "constant": false,
      "inputs": [
        {
          "internalType": "string",
          "name": "patientName",
          "type": "string"
        },
        {
          "internalType": "uint256",
          "name": "price",
          "type": "uint256"
        }
      ],
      "name": "bookAppointment",
      "outputs": [],
      "payable": true,
      "stateMutability": "payable",
      "type": "function"
    },
    {
      "constant": false,
      "inputs": [],
      "name": "cancelAppointment",
      "outputs": [],
      "payable": false,
      "stateMutability": "nonpayable",
      "type": "function"
    }
  ],
  "bytecode": "0x6080604052600060025534801561001557600080fd5b506040518060400160405280600f81526020017f45746862617920686f73706974616c0000000000000000000000000000000000815250600090805190602001906100619291906100a8565b5033600160006101000a81548173ffffffffffffffffffffffffffffffffffffffff021916908373ffffffffffffffffffffffffffffffffffffffff16021790555061014d565b828054600181600116156101000203166002900490600052602060002090601f016020900481019282601f106100e957805160ff1916838001178555610117565b82800160010185558215610117579182015b828111156101165782518255916020019190600101906100fb565b5b5090506101249190610128565b5090565b61014a91905b8082111561014657600081600090555060010161012e565b5090565b90565b6110f3806200015d6000396000f3fe6080604052600436106100555760003560e01c80631cae99e21461005a57806327199fb4146100ea5780637a7d8f6314610153578063ab1558d214610269578063c0daddfd1461032e578063fea32dd214610359575b600080fd5b34801561006657600080fd5b5061006f610370565b6040518080602001828103825283818151815260200191508051906020019080838360005b838110156100af578082015181840152602081019050610094565b50505050905090810190601f1680156100dc5780820380516001836020036101000a031916815260200191505b509250505060405180910390f35b3480156100f657600080fd5b506101396004803603602081101561010d57600080fd5b81019080803573ffffffffffffffffffffffffffffffffffffffff16906020019092919050505061040e565b604051808215151515815260200191505060405180910390f35b34801561015f57600080fd5b506101a26004803603602081101561017657600080fd5b81019080803573ffffffffffffffffffffffffffffffffffffffff16906020019092919050505061042e565b6040518086815260200185151515158152602001848152602001806020018373ffffffffffffffffffffffffffffffffffffffff1673ffffffffffffffffffffffffffffffffffffffff168152602001828103825284818151815260200191508051906020019080838360005b8381101561022a57808201518184015260208101905061020f565b50505050905090810190601f1680156102575780820380516001836020036101000a031916815260200191505b50965050505050505060405180910390f35b61032c6004803603604081101561027f57600080fd5b810190808035906020019064010000000081111561029c57600080fd5b8201836020820111156102ae57600080fd5b803590602001918460018302840111640100000000831117156102d057600080fd5b91908080601f016020809104026020016040519081016040528093929190818152602001838380828437600081840152601f19601f82011690508083019250505050505050919291929080359060200190929190505050610529565b005b34801561033a57600080fd5b50610343610af8565b6040518082815260200191505060405180910390f35b34801561036557600080fd5b5061036e610afe565b005b60008054600181600116156101000203166002900480601f0160208091040260200160405190810160405280929190818152602001828054600181600116156101000203166002900480156104065780601f106103db57610100808354040283529160200191610406565b820191906000526020600020905b8154815290600101906020018083116103e957829003601f168201915b505050505081565b60046020528060005260406000206000915054906101000a900460ff1681565b60036020528060005260406000206000915090508060000154908060010160009054906101000a900460ff1690806002015490806003018054600181600116156101000203166002900480601f0160208091040260200160405190810160405280929190818152602001828054600181600116156101000203166002900480156104f95780601f106104ce576101008083540402835291602001916104f9565b820191906000526020600020905b8154815290600101906020018083116104dc57829003601f168201915b5050505050908060040160009054906101000a900473ffffffffffffffffffffffffffffffffffffffff16905085565b60008251116105a0576040517f08c379a000000000000000000000000000000000000000000000000000000000815260040180806020018281038252601d8152602001807f70617469656e74206e616d652063616e206e6f7420626520656d70747900000081525060200191505060405180910390fd5b60008111610616576040517f08c379a00000000000000000000000000000000000000000000000000000000081526004018080602001828103825260178152602001807f50726963652073686f756c6420626520646566696e656400000000000000000081525060200191505060405180910390fd5b600160009054906101000a900473ffffffffffffffffffffffffffffffffffffffff1673ffffffffffffffffffffffffffffffffffffffff163373ffffffffffffffffffffffffffffffffffffffff1614156106da576040517f08c379a000000000000000000000000000000000000000000000000000000000815260040180806020018281038252601c8152602001807f4f776e65722063616e74206d616b65206170706f696e746d656e74730000000081525060200191505060405180910390fd5b60001515600460003373ffffffffffffffffffffffffffffffffffffffff1673ffffffffffffffffffffffffffffffffffffffff16815260200190815260200160002060009054906101000a900460ff161515146107a0576040517f08c379a000000000000000000000000000000000000000000000000000000000815260040180806020018281038252601b8152602001807f4f6e65206170706f696e746d656e74206174206f6e652074696d65000000000081525060200191505060405180910390fd5b80341015610816576040517f08c379a00000000000000000000000000000000000000000000000000000000081526004018080602001828103825260118152602001807f6861766520656e6f756768206d6f6e657900000000000000000000000000000081525060200191505060405180910390fd5b6002600081548092919060010191905055506040518060a0016040528060025481526020016001151581526020018281526020018381526020013373ffffffffffffffffffffffffffffffffffffffff16815250600360003373ffffffffffffffffffffffffffffffffffffffff1673ffffffffffffffffffffffffffffffffffffffff1681526020019081526020016000206000820151816000015560208201518160010160006101000a81548160ff0219169083151502179055506040820151816002015560608201518160030190805190602001906108f9929190610f81565b5060808201518160040160006101000a81548173ffffffffffffffffffffffffffffffffffffffff021916908373ffffffffffffffffffffffffffffffffffffffff1602179055509050506001600460003373ffffffffffffffffffffffffffffffffffffffff1673ffffffffffffffffffffffffffffffffffffffff16815260200190815260200160002060006101000a81548160ff021916908315150217905550600160009054906101000a900473ffffffffffffffffffffffffffffffffffffffff1673ffffffffffffffffffffffffffffffffffffffff166108fc349081150290604051600060405180830381858888f19350505050158015610a04573d6000803e3d6000fd5b507f351f7464d2c5223b1adf7da3cc80d4546cf7c1a9d91646b8019a349d9ad63ccf60025460018385336040518086815260200185151515158152602001848152602001806020018373ffffffffffffffffffffffffffffffffffffffff1673ffffffffffffffffffffffffffffffffffffffff168152602001828103825284818151815260200191508051906020019080838360005b83811015610ab6578082015181840152602081019050610a9b565b50505050905090810190601f168015610ae35780820380516001836020036101000a031916815260200191505b50965050505050505060405180910390a15050565b60025481565b60011515600460003373ffffffffffffffffffffffffffffffffffffffff1673ffffffffffffffffffffffffffffffffffffffff16815260200190815260200160002060009054906101000a900460ff16151514610ba7576040517f08c379a000000000000000000000000000000000000000000000000000000000815260040180806020018281038252602a81526020018061106e602a913960400191505060405180910390fd5b610baf611001565b600360003373ffffffffffffffffffffffffffffffffffffffff1673ffffffffffffffffffffffffffffffffffffffff1681526020019081526020016000206040518060a0016040529081600082015481526020016001820160009054906101000a900460ff1615151515815260200160028201548152602001600382018054600181600116156101000203166002900480601f016020809104026020016040519081016040528092919081815260200182805460018160011615610100020316600290048015610cc15780601f10610c9657610100808354040283529160200191610cc1565b820191906000526020600020905b815481529060010190602001808311610ca457829003601f168201915b505050505081526020016004820160009054906101000a900473ffffffffffffffffffffffffffffffffffffffff1673ffffffffffffffffffffffffffffffffffffffff1673ffffffffffffffffffffffffffffffffffffffff168152505090503373ffffffffffffffffffffffffffffffffffffffff16816080015173ffffffffffffffffffffffffffffffffffffffff1614610daa576040517f08c379a00000000000000000000000000000000000000000000000000000000081526004018080602001828103825260278152602001806110986027913960400191505060405180910390fd5b600160009054906101000a900473ffffffffffffffffffffffffffffffffffffffff1673ffffffffffffffffffffffffffffffffffffffff163373ffffffffffffffffffffffffffffffffffffffff161415610e6e576040517f08c379a00000000000000000000000000000000000000000000000000000000081526004018080602001828103825260148152602001807f6f776e65722063616e206e6f742063616e63656c00000000000000000000000081525060200191505060405180910390fd5b6000600460003373ffffffffffffffffffffffffffffffffffffffff1673ffffffffffffffffffffffffffffffffffffffff16815260200190815260200160002060006101000a81548160ff0219169083151502179055506040518060200160405280600081525081606001819052507fb6b4e026e309c2eaf887582f6813663fcfb90d293c6cb04ee5f59a4a61a6555d81600001516000836040015184608001516040518085815260200184151515158152602001838152602001806020018373ffffffffffffffffffffffffffffffffffffffff1673ffffffffffffffffffffffffffffffffffffffff1681526020018281038252600081526020016020019550505050505060405180910390a150565b828054600181600116156101000203166002900490600052602060002090601f016020900481019282601f10610fc257805160ff1916838001178555610ff0565b82800160010185558215610ff0579182015b82811115610fef578251825591602001919060010190610fd4565b5b509050610ffd9190611048565b5090565b6040518060a00160405280600081526020016000151581526020016000815260200160608152602001600073ffffffffffffffffffffffffffffffffffffffff1681525090565b61106a91905b8082111561106657600081600090555060010161104e565b5090565b9056fe50617469656e742073686f756c64206861766520626f6f6b656420746865206170706f696e746d656e744f6e6c792070617469656e742063616e2063616e63656c20746865206170706f696e746d656e74a265627a7a723158208fb0304c04709064113cdf36c30025f23ba837ca1a7681f64b659ba605d6d87764736f6c63430005100032",
  "source": "pragma solidity ^0.5.0;\n\n/*\ncontract Ethbay {\n    string public storeName;\n    uint public totalNumber = 0;\n    struct Item {\n        uint itemId;\n        string itemName;\n        uint itemPrice;\n        address payable itemOwner;\n        bool isItemSold;\n    }\n\n    mapping(uint => Item) public items;\n\n    event ItemReady(\n        uint itemId,\n        string itemName,\n        uint itemPrice,\n        address payable itemOwner,\n        bool isItemSold\n    );\n\n    event ItemSold(\n        uint itemId,\n        string itemName,\n        uint itemPrice,\n        address payable itemOwner,\n        bool isItemSold\n    );\n\n    constructor() public {\n        storeName = \"EECE571 ETHBAY.COM\";\n    }\n\n    function createItem(string memory _itemName, uint _itemPrice) public {\n        require(bytes(_itemName).length > 0, \"Item's name is required!\");\n        require(_itemPrice > 0, \"Item's price is required!\");\n        totalNumber++;\n        items[totalNumber] = Item(totalNumber, _itemName, _itemPrice, msg.sender, false);\n        emit ItemReady(totalNumber, _itemName, _itemPrice, msg.sender, false);  \n    }\n\n    function buyItem(uint _itemId) public payable {\n        Item memory _item = items[_itemId];\n        address payable _seller = _item.itemOwner;\n        require(_item.itemId > 0 && _item.itemId <= totalNumber, \"Item should be ready to sell!\");\n        require(msg.value >= _item.itemPrice, \"Payment should be enough!\" );\n        require(!_item.isItemSold, \"Item should not been sold yet!\");\n        require(msg.sender != _seller, \"Cannot buy himself/herself\");\n\n        _item.itemOwner = msg.sender;\n        _item.isItemSold = true;\n        items[_itemId] = _item;\n        _seller.transfer(msg.value);\n        emit ItemSold(_item.itemId, _item.itemName, _item.itemPrice, msg.sender, true);\n    }\n\n}\n*/\ncontract Hospital{\n    //hospital naame\n    // owner\n    //appointment\n    //mapping\n    //events:\n    // appointment book, appointment cancel\n    //functions\n    //book, cancel appointments\n    string public hospitalName;\n    address payable owner;\n    uint public totalNumber = 0;\n    struct appointment{\n        uint appointmentId;\n        bool isBooked;\n        uint price;\n        string patientName; \n        address payable patient;       \n    }\n    mapping (address  => appointment) public appointments;\n    mapping (address  => bool )public isBooked; //\n    event appointmentBooked(\n        uint appointmentId,\n        bool isBooked,\n        uint price,\n        string patientName,   \n        address payable patient\n    );\n    event appointmentCancel(\n       uint appointmentId,\n        bool isBooked,\n        uint price,\n        string patientName,   \n        address payable patient  \n    );\n    // in book appointment - pay to owner, in cancel - pay back\n    constructor() public{\n        hospitalName = 'Ethbay hospital';\n        owner = msg.sender;\n    }\n    function bookAppointment(string memory patientName, uint price)public payable{\n        //patientname not empty, price not empty\n        require(bytes(patientName).length >0,'patient name can not be empty');\n        require(price>0, 'Price should be defined');\n        //owner is not booking\n        require(msg.sender!= owner, 'Owner cant make appointments');\n        //isbooked nahi honi chahioe\n        require(isBooked[msg.sender] == false, 'One appointment at one time');\n        require(msg.value >= price,'have enough money');\n        totalNumber++;\n        appointments[msg.sender]= appointment(totalNumber, true, price, patientName, msg.sender);\n        isBooked[msg.sender]= true;\n        owner.transfer(msg.value);\n        emit appointmentBooked(totalNumber, true, price, patientName, msg.sender);      \n\n    }\n    function cancelAppointment()public{\n        //appointment from customer should be booked\n        //patient id for the appointment should be same - same person is able to cancel the appointment\n        //owner cannot cancel the appointment\n        require(isBooked[msg.sender]==true,'Patient should have booked the appointment');\n        appointment memory appt = appointments[msg.sender];\n        require(appt.patient == msg.sender, 'Only patient can cancel the appointment');\n        require(msg.sender != owner, 'owner can not cancel');\n        isBooked[msg.sender]=false;\n        //appt.patient = '0x0';\n        appt.patientName='';\n        emit appointmentCancel(appt.appointmentId, false, appt.price,'',appt.patient);\n\n    }\n    /*\n    function refund(address payable patient)public{\n        //owner should have enough funds\n        //msg.sender = owner\n        //appointment should be booked\n    }\n    */\n    \n}",
  "sourcePath": "/Users/garimaaggarwal/Documents/blockchain/blockchain swe/EECE571/ReviewAndMidtermFrame/src/contracts/Ethbay.sol",
  "compiler": {
    "name": "solc",
    "version": "0.5.16+commit.9c3226ce.Emscripten.clang"
  },
  "schemaVersion": "3.0.23",
  "updatedAt": "2020-02-24T20:52:59.384Z",
  "devdoc": {
    "methods": {}
  },
  "userdoc": {
    "methods": {}
  }
}